{
  "abi": [
    {
      "inputs": [
        {
          "components": [
            {
              "internalType": "uint8",
              "name": "firstCommitteeAcceptanceQuorum",
              "type": "uint8"
            },
            {
              "internalType": "uint8",
              "name": "secondCommitteeAcceptanceQuorum",
              "type": "uint8"
            }
          ],
          "internalType": "struct Multisig.Config",
          "name": "config",
          "type": "tuple"
        },
        {
          "internalType": "uint16",
          "name": "_validatorFeeBPS",
          "type": "uint16"
        },
        {
          "internalType": "uint16",
          "name": "_protocolFeeBPS",
          "type": "uint16"
        }
      ],
      "stateMutability": "nonpayable",
      "type": "constructor"
    },
    {
      "inputs": [],
      "name": "ContractMigrated",
      "type": "error"
    },
    {
      "inputs": [],
      "name": "ContractNotPaused",
      "type": "error"
    },
    {
      "inputs": [],
      "name": "ContractPaused",
      "type": "error"
    },
    {
      "inputs": [],
      "name": "DailyLimitExhausted",
      "type": "error"
    },
    {
      "inputs": [],
      "name": "FeeExceedsMaxFee",
      "type": "error"
    },
    {
      "inputs": [],
      "name": "InvalidBlockHash",
      "type": "error"
    },
    {
      "inputs": [],
      "name": "InvalidConfiguration",
      "type": "error"
    },
    {
      "inputs": [],
      "name": "InvalidFeeRecipient",
      "type": "error"
    },
    {
      "inputs": [],
      "name": "InvalidId",
      "type": "error"
    },
    {
      "inputs": [],
      "name": "InvalidNextExecutionIndex",
      "type": "error"
    },
    {
      "inputs": [],
      "name": "InvalidToAddress",
      "type": "error"
    },
    {
      "inputs": [],
      "name": "InvalidTokenAmount",
      "type": "error"
    },
    {
      "inputs": [],
      "name": "InvalidTokenConfig",
      "type": "error"
    },
    {
      "inputs": [],
      "name": "MaxCommitteeSizeReached",
      "type": "error"
    },
    {
      "inputs": [
        {
          "internalType": "address",
          "name": "signer",
          "type": "address"
        }
      ],
      "name": "SignerAlreadyExists",
      "type": "error"
    },
    {
      "inputs": [
        {
          "internalType": "address",
          "name": "signer",
          "type": "address"
        }
      ],
      "name": "SignerNotActive",
      "type": "error"
    },
    {
      "anonymous": false,
      "inputs": [
        {
          "indexed": true,
          "internalType": "uint256",
          "name": "id",
          "type": "uint256"
        },
        {
          "indexed": true,
          "internalType": "address",
          "name": "token",
          "type": "address"
        },
        {
          "indexed": false,
          "internalType": "uint256",
          "name": "amount",
          "type": "uint256"
        },
        {
          "indexed": false,
          "internalType": "address",
          "name": "to",
          "type": "address"
        },
        {
          "indexed": false,
          "internalType": "uint256",
          "name": "fee",
          "type": "uint256"
        }
      ],
      "name": "Deposit",
      "type": "event"
    },
    {
      "anonymous": false,
      "inputs": [
        {
          "indexed": true,
          "internalType": "uint256",
          "name": "id",
          "type": "uint256"
        },
        {
          "indexed": true,
          "internalType": "address",
          "name": "mirrorToken",
          "type": "address"
        },
        {
          "indexed": true,
          "internalType": "address",
          "name": "token",
          "type": "address"
        },
        {
          "indexed": false,
          "internalType": "uint256",
          "name": "amount",
          "type": "uint256"
        },
        {
          "indexed": false,
          "internalType": "address",
          "name": "to",
          "type": "address"
        },
        {
          "indexed": false,
          "internalType": "uint256",
          "name": "fee",
          "type": "uint256"
        }
      ],
      "name": "Executed",
      "type": "event"
    },
    {
      "anonymous": false,
      "inputs": [
        {
          "indexed": true,
          "internalType": "uint256",
          "name": "id",
          "type": "uint256"
        },
        {
          "indexed": true,
          "internalType": "address",
          "name": "mirrorToken",
          "type": "address"
        },
        {
          "indexed": false,
          "internalType": "uint256",
          "name": "amount",
          "type": "uint256"
        },
        {
          "indexed": false,
          "internalType": "address",
          "name": "to",
          "type": "address"
        }
      ],
      "name": "Requested",
      "type": "event"
    },
    {
      "anonymous": false,
      "inputs": [
        {
          "indexed": true,
          "internalType": "bytes32",
          "name": "role",
          "type": "bytes32"
        },
        {
          "indexed": true,
          "internalType": "bytes32",
          "name": "previousAdminRole",
          "type": "bytes32"
        },
        {
          "indexed": true,
          "internalType": "bytes32",
          "name": "newAdminRole",
          "type": "bytes32"
        }
      ],
      "name": "RoleAdminChanged",
      "type": "event"
    },
    {
      "anonymous": false,
      "inputs": [
        {
          "indexed": true,
          "internalType": "bytes32",
          "name": "role",
          "type": "bytes32"
        },
        {
          "indexed": true,
          "internalType": "address",
          "name": "account",
          "type": "address"
        },
        {
          "indexed": true,
          "internalType": "address",
          "name": "sender",
          "type": "address"
        }
      ],
      "name": "RoleGranted",
      "type": "event"
    },
    {
      "anonymous": false,
      "inputs": [
        {
          "indexed": true,
          "internalType": "bytes32",
          "name": "role",
          "type": "bytes32"
        },
        {
          "indexed": true,
          "internalType": "address",
          "name": "account",
          "type": "address"
        },
        {
          "indexed": true,
          "internalType": "address",
          "name": "sender",
          "type": "address"
        }
      ],
      "name": "RoleRevoked",
      "type": "event"
    },
    {
      "inputs": [],
      "name": "DEFAULT_ADMIN_ROLE",
      "outputs": [
        {
          "internalType": "bytes32",
          "name": "",
          "type": "bytes32"
        }
      ],
      "stateMutability": "view",
      "type": "function"
    },
    {
      "inputs": [],
      "name": "PAUSE_ROLE",
      "outputs": [
        {
          "internalType": "bytes32",
          "name": "",
          "type": "bytes32"
        }
      ],
      "stateMutability": "view",
      "type": "function"
    },
    {
      "inputs": [],
      "name": "WEAK_ADMIN_ROLE",
      "outputs": [
        {
          "internalType": "bytes32",
          "name": "",
          "type": "bytes32"
        }
      ],
      "stateMutability": "view",
      "type": "function"
    },
    {
      "inputs": [
        {
          "internalType": "address",
          "name": "",
          "type": "address"
        }
      ],
      "name": "accumulatedProtocolFees",
      "outputs": [
        {
          "internalType": "uint256",
          "name": "",
          "type": "uint256"
        }
      ],
      "stateMutability": "view",
      "type": "function"
    },
    {
      "inputs": [
        {
          "internalType": "address",
          "name": "validator",
          "type": "address"
        },
        {
          "internalType": "bool",
          "name": "isFirstCommittee",
          "type": "bool"
        },
        {
          "internalType": "address",
          "name": "feeRecipient",
          "type": "address"
        }
      ],
      "name": "addValidator",
      "outputs": [],
      "stateMutability": "nonpayable",
      "type": "function"
    },
    {
      "inputs": [
        {
          "internalType": "uint256",
          "name": "id",
          "type": "uint256"
        },
        {
          "internalType": "address",
          "name": "mirrorToken",
          "type": "address"
        },
        {
          "internalType": "uint256",
          "name": "amount",
          "type": "uint256"
        },
        {
          "internalType": "address",
          "name": "to",
          "type": "address"
        },
        {
          "internalType": "bytes32",
          "name": "recentBlockHash",
          "type": "bytes32"
        },
        {
          "internalType": "uint256",
          "name": "recentBlockNumber",
          "type": "uint256"
        }
      ],
      "name": "approveExecute",
      "outputs": [],
      "stateMutability": "nonpayable",
      "type": "function"
    },
    {
      "inputs": [
        {
          "internalType": "bytes32",
          "name": "hash",
          "type": "bytes32"
        }
      ],
      "name": "attesters",
      "outputs": [
        {
          "internalType": "uint16[]",
          "name": "attesterIndexes",
          "type": "uint16[]"
        },
        {
          "internalType": "uint16",
          "name": "count",
          "type": "uint16"
        }
      ],
      "stateMutability": "view",
      "type": "function"
    },
    {
      "inputs": [
        {
          "components": [
            {
              "internalType": "uint256",
              "name": "id",
              "type": "uint256"
            },
            {
              "internalType": "address",
              "name": "token",
              "type": "address"
            },
            {
              "internalType": "uint256",
              "name": "amount",
              "type": "uint256"
            },
            {
              "internalType": "address",
              "name": "to",
              "type": "address"
            }
          ],
          "internalType": "struct IWrap.RequestInfo[]",
          "name": "requests",
          "type": "tuple[]"
        },
        {
          "internalType": "bytes32",
          "name": "recentBlockHash",
          "type": "bytes32"
        },
        {
          "internalType": "uint256",
          "name": "recentBlockNumber",
          "type": "uint256"
        }
      ],
      "name": "batchApproveExecute",
      "outputs": [],
      "stateMutability": "nonpayable",
      "type": "function"
    },
    {
      "inputs": [
        {
          "internalType": "address",
          "name": "token",
          "type": "address"
        },
        {
          "internalType": "address",
          "name": "recipient",
          "type": "address"
        }
      ],
      "name": "claimProtocolFees",
      "outputs": [],
      "stateMutability": "nonpayable",
      "type": "function"
    },
    {
      "inputs": [
        {
          "internalType": "address",
          "name": "validator",
          "type": "address"
        }
      ],
      "name": "claimValidatorFees",
      "outputs": [],
      "stateMutability": "nonpayable",
      "type": "function"
    },
    {
      "inputs": [
        {
          "components": [
            {
              "internalType": "uint8",
              "name": "firstCommitteeAcceptanceQuorum",
              "type": "uint8"
            },
            {
              "internalType": "uint8",
              "name": "secondCommitteeAcceptanceQuorum",
              "type": "uint8"
            }
          ],
          "internalType": "struct Multisig.Config",
          "name": "config",
          "type": "tuple"
        }
      ],
      "name": "configureMultisig",
      "outputs": [],
      "stateMutability": "nonpayable",
      "type": "function"
    },
    {
      "inputs": [
        {
          "internalType": "uint16",
          "name": "_protocolFeeBPS",
          "type": "uint16"
        }
      ],
      "name": "configureProtocolFees",
      "outputs": [],
      "stateMutability": "nonpayable",
      "type": "function"
    },
    {
      "inputs": [
        {
          "internalType": "address",
          "name": "token",
          "type": "address"
        },
        {
          "components": [
            {
              "internalType": "uint256",
              "name": "maxAmount",
              "type": "uint256"
            },
            {
              "internalType": "uint256",
              "name": "minAmount",
              "type": "uint256"
            },
            {
              "internalType": "uint256",
              "name": "dailyLimit",
              "type": "uint256"
            }
          ],
          "internalType": "struct IWrap.TokenInfo",
          "name": "tokenInfo",
          "type": "tuple"
        }
      ],
      "name": "configureToken",
      "outputs": [],
      "stateMutability": "nonpayable",
      "type": "function"
    },
    {
      "inputs": [
        {
          "internalType": "address",
          "name": "validator",
          "type": "address"
        },
        {
          "internalType": "address",
          "name": "feeRecipient",
          "type": "address"
        }
      ],
      "name": "configureValidatorFeeRecipient",
      "outputs": [],
      "stateMutability": "nonpayable",
      "type": "function"
    },
    {
      "inputs": [
        {
          "internalType": "uint16",
          "name": "_validatorFeeBPS",
          "type": "uint16"
        }
      ],
      "name": "configureValidatorFees",
      "outputs": [],
      "stateMutability": "nonpayable",
      "type": "function"
    },
    {
      "inputs": [
        {
          "internalType": "string",
          "name": "tokenName",
          "type": "string"
        },
        {
          "internalType": "string",
          "name": "tokenSymbol",
          "type": "string"
        },
        {
          "internalType": "address",
          "name": "existingToken",
          "type": "address"
        },
        {
          "internalType": "address",
          "name": "mirrorToken",
          "type": "address"
        },
        {
          "internalType": "uint8",
          "name": "mirrorTokenDecimals",
          "type": "uint8"
        },
        {
          "components": [
            {
              "internalType": "uint256",
              "name": "maxAmount",
              "type": "uint256"
            },
            {
              "internalType": "uint256",
              "name": "minAmount",
              "type": "uint256"
            },
            {
              "internalType": "uint256",
              "name": "dailyLimit",
              "type": "uint256"
            }
          ],
          "internalType": "struct IWrap.TokenInfo",
          "name": "tokenInfo",
          "type": "tuple"
        }
      ],
      "name": "createAddToken",
      "outputs": [
        {
          "internalType": "address",
          "name": "token",
          "type": "address"
        }
      ],
      "stateMutability": "nonpayable",
      "type": "function"
    },
    {
      "inputs": [
        {
          "internalType": "address",
          "name": "token",
          "type": "address"
        },
        {
          "internalType": "uint256",
          "name": "amount",
          "type": "uint256"
        },
        {
          "internalType": "address",
          "name": "to",
          "type": "address"
        }
      ],
      "name": "deposit",
      "outputs": [
        {
          "internalType": "uint256",
          "name": "id",
          "type": "uint256"
        }
      ],
      "stateMutability": "nonpayable",
      "type": "function"
    },
    {
      "inputs": [],
      "name": "depositIndex",
      "outputs": [
        {
          "internalType": "uint256",
          "name": "",
          "type": "uint256"
        }
      ],
      "stateMutability": "view",
      "type": "function"
    },
    {
      "inputs": [
        {
          "internalType": "address",
          "name": "",
          "type": "address"
        },
        {
          "internalType": "uint256",
          "name": "",
          "type": "uint256"
        }
      ],
      "name": "feeBalance",
      "outputs": [
        {
          "internalType": "uint256",
          "name": "",
          "type": "uint256"
        }
      ],
      "stateMutability": "view",
      "type": "function"
    },
    {
      "inputs": [
        {
          "internalType": "uint256",
          "name": "index",
          "type": "uint256"
        }
      ],
      "name": "forceSetNextExecutionIndex",
      "outputs": [],
      "stateMutability": "nonpayable",
      "type": "function"
    },
    {
      "inputs": [
        {
          "internalType": "bytes32",
          "name": "role",
          "type": "bytes32"
        }
      ],
      "name": "getRoleAdmin",
      "outputs": [
        {
          "internalType": "bytes32",
          "name": "",
          "type": "bytes32"
        }
      ],
      "stateMutability": "view",
      "type": "function"
    },
    {
      "inputs": [
        {
          "internalType": "bytes32",
          "name": "role",
          "type": "bytes32"
        },
        {
          "internalType": "uint256",
          "name": "index",
          "type": "uint256"
        }
      ],
      "name": "getRoleMember",
      "outputs": [
        {
          "internalType": "address",
          "name": "",
          "type": "address"
        }
      ],
      "stateMutability": "view",
      "type": "function"
    },
    {
      "inputs": [
        {
          "internalType": "bytes32",
          "name": "role",
          "type": "bytes32"
        }
      ],
      "name": "getRoleMemberCount",
      "outputs": [
        {
          "internalType": "uint256",
          "name": "",
          "type": "uint256"
        }
      ],
      "stateMutability": "view",
      "type": "function"
    },
    {
      "inputs": [
        {
          "internalType": "bytes32",
          "name": "role",
          "type": "bytes32"
        },
        {
          "internalType": "address",
          "name": "account",
          "type": "address"
        }
      ],
      "name": "grantRole",
      "outputs": [],
      "stateMutability": "nonpayable",
      "type": "function"
    },
    {
      "inputs": [
        {
          "internalType": "bytes32",
          "name": "role",
          "type": "bytes32"
        },
        {
          "internalType": "address",
          "name": "account",
          "type": "address"
        }
      ],
      "name": "hasRole",
      "outputs": [
        {
          "internalType": "bool",
          "name": "",
          "type": "bool"
        }
      ],
      "stateMutability": "view",
      "type": "function"
    },
    {
      "inputs": [
        {
          "internalType": "address",
          "name": "_newContract",
          "type": "address"
        }
      ],
      "name": "migrate",
      "outputs": [],
      "stateMutability": "nonpayable",
      "type": "function"
    },
    {
      "inputs": [],
      "name": "migratedContract",
      "outputs": [
        {
          "internalType": "address",
          "name": "",
          "type": "address"
        }
      ],
      "stateMutability": "view",
      "type": "function"
    },
    {
      "inputs": [
        {
          "internalType": "address",
          "name": "",
          "type": "address"
        }
      ],
      "name": "mirrorTokens",
      "outputs": [
        {
          "internalType": "address",
          "name": "",
          "type": "address"
        }
      ],
      "stateMutability": "view",
      "type": "function"
    },
    {
      "inputs": [],
      "name": "nextExecutionIndex",
      "outputs": [
        {
          "internalType": "uint256",
          "name": "",
          "type": "uint256"
        }
      ],
      "stateMutability": "view",
      "type": "function"
    },
    {
      "inputs": [],
      "name": "pause",
      "outputs": [],
      "stateMutability": "nonpayable",
      "type": "function"
    },
    {
      "inputs": [],
      "name": "paused",
      "outputs": [
        {
          "internalType": "bool",
          "name": "",
          "type": "bool"
        }
      ],
      "stateMutability": "view",
      "type": "function"
    },
    {
      "inputs": [],
      "name": "protocolFeeBPS",
      "outputs": [
        {
          "internalType": "uint16",
          "name": "",
          "type": "uint16"
        }
      ],
      "stateMutability": "view",
      "type": "function"
    },
    {
      "inputs": [
        {
          "internalType": "address",
          "name": "validator",
          "type": "address"
        }
      ],
      "name": "removeValidator",
      "outputs": [],
      "stateMutability": "nonpayable",
      "type": "function"
    },
    {
      "inputs": [
        {
          "internalType": "bytes32",
          "name": "role",
          "type": "bytes32"
        },
        {
          "internalType": "address",
          "name": "account",
          "type": "address"
        }
      ],
      "name": "renounceRole",
      "outputs": [],
      "stateMutability": "nonpayable",
      "type": "function"
    },
    {
      "inputs": [
        {
          "internalType": "bytes32",
          "name": "role",
          "type": "bytes32"
        },
        {
          "internalType": "address",
          "name": "account",
          "type": "address"
        }
      ],
      "name": "revokeRole",
      "outputs": [],
      "stateMutability": "nonpayable",
      "type": "function"
    },
    {
      "inputs": [
        {
          "internalType": "bytes4",
          "name": "interfaceId",
          "type": "bytes4"
        }
      ],
      "name": "supportsInterface",
      "outputs": [
        {
          "internalType": "bool",
          "name": "",
          "type": "bool"
        }
      ],
      "stateMutability": "view",
      "type": "function"
    },
    {
      "inputs": [
        {
          "internalType": "address",
          "name": "",
          "type": "address"
        }
      ],
      "name": "tokenInfos",
      "outputs": [
        {
          "internalType": "uint256",
          "name": "maxAmount",
          "type": "uint256"
        },
        {
          "internalType": "uint256",
          "name": "minAmount",
          "type": "uint256"
        },
        {
          "internalType": "uint256",
          "name": "dailyLimit",
          "type": "uint256"
        },
        {
          "internalType": "uint256",
          "name": "consumedLimit",
          "type": "uint256"
        },
        {
          "internalType": "uint256",
          "name": "lastUpdated",
          "type": "uint256"
        }
      ],
      "stateMutability": "view",
      "type": "function"
    },
    {
      "inputs": [
        {
          "internalType": "uint256",
          "name": "",
          "type": "uint256"
        }
      ],
      "name": "tokens",
      "outputs": [
        {
          "internalType": "address",
          "name": "",
          "type": "address"
        }
      ],
      "stateMutability": "view",
      "type": "function"
    },
    {
      "inputs": [],
      "name": "unpause",
      "outputs": [],
      "stateMutability": "nonpayable",
      "type": "function"
    },
    {
      "inputs": [],
      "name": "validatorFeeBPS",
      "outputs": [
        {
          "internalType": "uint16",
          "name": "",
          "type": "uint16"
        }
      ],
      "stateMutability": "view",
      "type": "function"
    },
    {
      "inputs": [
        {
          "internalType": "address",
          "name": "",
          "type": "address"
        }
      ],
      "name": "validatorFeeRecipients",
      "outputs": [
        {
          "internalType": "address",
          "name": "",
          "type": "address"
        }
      ],
      "stateMutability": "view",
      "type": "function"
    },
    {
      "inputs": [
        {
          "internalType": "address",
          "name": "validator",
          "type": "address"
        }
      ],
      "name": "validatorInfo",
      "outputs": [
        {
          "components": [
            {
              "internalType": "enum Multisig.SignerStatus",
              "name": "status",
              "type": "uint8"
            },
            {
              "internalType": "uint8",
              "name": "index",
              "type": "uint8"
            }
          ],
          "internalType": "struct Multisig.SignerInfo",
          "name": "",
          "type": "tuple"
        }
      ],
      "stateMutability": "view",
      "type": "function"
    }
  ],
  "bytecode": {
    "object": "0x60806040523480156200001157600080fd5b5060405162005b0838038062005b08833981016040819052620000349162000748565b8282620000436000336200009b565b6200005e60008051602062005ae8833981519152336200009b565b62000079826008620000ab60201b620011d81790919060201c565b62000084816200012b565b506200009290508162000187565b50505062000952565b620000a782826200028e565b5050565b805160ff161580620000c357508051608060ff909116115b80620000d45750602081015160ff16155b80620000ea5750608060ff16816020015160ff16115b15620001095760405163c52a9bd360e01b815260040160405180910390fd5b8051825460209092015160ff9081166101000261ffff19909316911617179055565b60008051602062005ae88339815191526200014681620002cc565b6101f461ffff831611156200016e57604051634efbf5f560e01b815260040160405180910390fd5b50600e805461ffff191661ffff92909216919091179055565b60008051602062005ae8833981519152620001a281620002cc565b6101f461ffff83161115620001ca57604051634efbf5f560e01b815260040160405180910390fd5b6010805461ffff191661ffff841617905560005b6007548110156200028957600060078281548110620002015762000201620007ec565b60009182526020808320909101546001600160a01b031680835260038083526040808520815160a0810183528154808252600183015496820187905260028301549382018490529382015460608201526004909101546080820152929550919362000271938693909291620002db565b50508080620002809062000818565b915050620001de565b505050565b620002a582826200039960201b620012581760201c565b600082815260016020908152604090912062000289918390620012e062000439821b17901c565b620002d8813362000459565b50565b6001600160a01b038516600090815260036020526040902060010154841580620003125750816200030e57801562000312565b8015155b1562000331576040516303ff3dd760e11b815260040160405180910390fd5b50506040805160a081018252928352602080840194855283820192835260006060850181815242608087019081526001600160a01b03909816825260039283905292902093518455935160018401559051600283015551918101919091559051600490910155565b6000828152602081815260408083206001600160a01b038516845290915290205460ff16620000a7576000828152602081815260408083206001600160a01b03851684529091529020805460ff19166001179055620003f53390565b6001600160a01b0316816001600160a01b0316837f2f8788117e7eff1d82e926ec794901d17c78024a50270940304540a733656f0d60405160405180910390a45050565b600062000450836001600160a01b038416620004fd565b90505b92915050565b6000828152602081815260408083206001600160a01b038516845290915290205460ff16620000a757620004a3816001600160a01b031660146200054f60201b620012f71760201c565b620004b9836020620012f76200054f821b17811c565b604051602001620004cc9291906200085a565b60408051601f198184030181529082905262461bcd60e51b8252620004f491600401620008d3565b60405180910390fd5b6000818152600183016020526040812054620005465750815460018181018455600084815260208082209093018490558454848252828601909352604090209190915562000453565b50600062000453565b606060006200056083600262000908565b6200056d90600262000922565b6001600160401b0381111562000587576200058762000708565b6040519080825280601f01601f191660200182016040528015620005b2576020820181803683370190505b509050600360fc1b81600081518110620005d057620005d0620007ec565b60200101906001600160f81b031916908160001a905350600f60fb1b81600181518110620006025762000602620007ec565b60200101906001600160f81b031916908160001a90535060006200062884600262000908565b6200063590600162000922565b90505b6001811115620006b7576f181899199a1a9b1b9c1cb0b131b232b360811b85600f16601081106200066d576200066d620007ec565b1a60f81b828281518110620006865762000686620007ec565b60200101906001600160f81b031916908160001a90535060049490941c93620006af8162000938565b905062000638565b508315620004505760405162461bcd60e51b815260206004820181905260248201527f537472696e67733a20686578206c656e67746820696e73756666696369656e746044820152606401620004f4565b634e487b7160e01b600052604160045260246000fd5b805160ff811681146200073057600080fd5b919050565b805161ffff811681146200073057600080fd5b600080600083850360808112156200075f57600080fd5b60408112156200076e57600080fd5b50604080519081016001600160401b0381118282101715620007a057634e487b7160e01b600052604160045260246000fd5b604052620007ae856200071e565b8152620007be602086016200071e565b60208201529250620007d36040850162000735565b9150620007e36060850162000735565b90509250925092565b634e487b7160e01b600052603260045260246000fd5b634e487b7160e01b600052601160045260246000fd5b6000600182016200082d576200082d62000802565b5060010190565b60005b838110156200085157818101518382015260200162000837565b50506000910152565b7f416363657373436f6e74726f6c3a206163636f756e74200000000000000000008152600083516200089481601785016020880162000834565b7001034b99036b4b9b9b4b733903937b6329607d1b6017918401918201528351620008c781602884016020880162000834565b01602801949350505050565b6020815260008251806020840152620008f481604085016020870162000834565b601f01601f19169190910160400192915050565b808202811582820484141762000453576200045362000802565b8082018082111562000453576200045362000802565b6000816200094a576200094a62000802565b506000190190565b61518680620009626000396000f3fe60806040523480156200001157600080fd5b5060043610620002915760003560e01c8063842e8b811162000161578063a217fddf11620000d3578063d17349071162000092578063d1734907146200068d578063d547741f14620006a4578063dff7330714620006bb578063eec9c9de14620006c4578063f45346dc14620006f2578063feaeb43e146200070957600080fd5b8063a217fddf14620005d5578063ba46ae7214620005de578063c3e4a8661462000648578063ca15c873146200065f578063ce5494bb146200067657600080fd5b80638e26a48811620001205780638e26a488146200055e5780639010d07c146200058157806391d1485414620005985780639267b15314620005af57806396daa32214620005c657600080fd5b8063842e8b8114620004ec5780638456cb59146200050f578063858146361462000519578063883910d7146200053057806388f14da3146200054757600080fd5b80634f64b2be116200020757806366d372e811620001c657806366d372e8146200046c5780636d1b96b4146200048357806373445f00146200049a5780637486fa4e14620004b157806377c654a314620004cb5780637b89893914620004e257600080fd5b80634f64b2be14620003f2578063511e1f0c14620004095780635bfb29aa14620004205780635c975abb1462000437578063651107bd146200044557600080fd5b8063389ed2671162000254578063389ed267146200036c5780633f4ba83a146200039457806340a141ff146200039e57806347adf63014620003b55780634f1811dd14620003cc57600080fd5b806301ffc9a71462000296578063248a9ca314620002c25780632f2ff15d14620002f757806336568abe146200031057806336cdca741462000327575b600080fd5b620002ad620002a736600462002aeb565b62000735565b60405190151581526020015b60405180910390f35b620002e8620002d336600462002b17565b60009081526020819052604090206001015490565b604051908152602001620002b9565b6200030e6200030836600462002b4e565b62000763565b005b6200030e6200032136600462002b4e565b62000791565b620003536200033836600462002b7d565b6005602052600090815260409020546001600160a01b031681565b6040516001600160a01b039091168152602001620002b9565b620002e87ffcb9fcbfa83b897fb2d5cf4b58962164105c1e71489a37ef3ae0db3fdce576f681565b6200030e62000817565b6200030e620003af36600462002b7d565b62000870565b6200030e620003c636600462002b9b565b62000898565b620003e3620003dd36600462002b7d565b620008c3565b604051620002b9919062002bca565b620003536200040336600462002b17565b62000940565b6200030e6200041a36600462002b7d565b6200096b565b620003536200043136600462002cd7565b62000a4e565b600254620002ad9060ff1681565b6200045c6200045636600462002b17565b62000acb565b604051620002b992919062002d8d565b6200030e6200047d36600462002de2565b62000ae5565b6200030e6200049436600462002e3f565b62000b2d565b6200030e620004ab36600462002ed5565b62000c2d565b600e5462000353906201000090046001600160a01b031681565b6200030e620004dc36600462002f21565b62000c79565b620002e8600d5481565b600e54620004fb9061ffff1681565b60405161ffff9091168152602001620002b9565b6200030e62000cbf565b620002e86000805160206200513183398151915281565b6200030e6200054136600462002f50565b62000cfb565b6200030e6200055836600462002f50565b62000dfd565b620002e86200056f36600462002b7d565b600f6020526000908152604090205481565b620003536200059236600462002f76565b62000e59565b620002ad620005a936600462002b4e565b62000e7a565b6200030e620005c036600462002f99565b62000ea3565b601054620004fb9061ffff1681565b620002e8600081565b6200061f620005ef36600462002b7d565b60036020819052600091825260409091208054600182015460028301549383015460049093015491939092909185565b604080519586526020860194909452928401919091526060830152608082015260a001620002b9565b6200030e6200065936600462002f21565b62000ed7565b620002e86200067036600462002b17565b62000f21565b6200030e6200068736600462002b7d565b62000f3a565b6200030e6200069e36600462002b17565b62000fd7565b6200030e620006b536600462002b4e565b62000ff1565b600954620002e8565b620002e8620006d536600462002fc9565b600660209081526000928352604080842090915290825290205481565b620002e86200070336600462002ff6565b6200101a565b620003536200071a36600462002b7d565b6004602052600090815260409020546001600160a01b031681565b60006001600160e01b03198216635a05180f60e01b14806200075d57506200075d82620014b1565b92915050565b6000828152602081905260409020600101546200078081620014e8565b6200078c8383620014f7565b505050565b6001600160a01b0381163314620008075760405162461bcd60e51b815260206004820152602f60248201527f416363657373436f6e74726f6c3a2063616e206f6e6c792072656e6f756e636560448201526e103937b632b9903337b91039b2b63360891b60648201526084015b60405180910390fd5b6200081382826200151d565b5050565b600e546201000090046001600160a01b0316156200084857604051631fa7b44b60e11b815260040160405180910390fd5b600080516020620051318339815191526200086381620014e8565b506002805460ff19169055565b600080516020620051318339815191526200088b81620014e8565b6200081360088362001543565b6000620008a581620014e8565b62000813620008ba368490038401846200302e565b600890620011d8565b60408051808201909152600080825260208201526001600160a01b0382166000908152600a60205260409081902081518083019092528054829060ff16600381111562000914576200091462002bb4565b600381111562000928576200092862002bb4565b81529054610100900460ff1660209091015292915050565b600781815481106200095157600080fd5b6000918252602090912001546001600160a01b0316905081565b6001600160a01b038082166000908152600560205260409020541680620009a557604051630ed1b8b360e31b815260040160405180910390fd5b6001600160a01b0382166000908152600a6020526040812054610100900460ff16905b60075481101562000a4857600060078281548110620009eb57620009eb62003091565b6000918252602080832091909101546001600160a01b031680835260068252604080842061ffff881685529092529082208054929055915062000a30828683620015e9565b5050808062000a3f90620030bd565b915050620009c8565b50505050565b60008062000a5c81620014e8565b6001600160a01b0386161562000a73578562000ab1565b87878560405162000a849062002add565b62000a92939291906200312d565b604051809103906000f08015801562000aaf573d6000803e3d6000fd5b505b915062000ac08286856200163d565b509695505050505050565b6060600062000adc600884620016fa565b91509150915091565b818181158062000af6575081814014155b1562000b1557604051631f03465b60e11b815260040160405180910390fd5b62000b238888888862001807565b5050505050505050565b818181158062000b3e575081814014155b1562000b5d57604051631f03465b60e11b815260040160405180910390fd5b60005b8581101562000c245762000c0f87878381811062000b825762000b8262003091565b9050608002016000013588888481811062000ba15762000ba162003091565b905060800201602001602081019062000bbb919062002b7d565b89898581811062000bd05762000bd062003091565b905060800201604001358a8a8681811062000bef5762000bef62003091565b905060800201606001602081019062000c09919062002b7d565b62001807565b8062000c1b81620030bd565b91505062000b60565b50505050505050565b600062000c3a81620014e8565b62000c486008858562001a3b565b506001600160a01b03928316600090815260056020526040902080546001600160a01b031916919093161790915550565b6000805160206200513183398151915262000c9481620014e8565b6001600160a01b0383166000818152600f6020526040812080549190559062000a48908483620015e9565b7ffcb9fcbfa83b897fb2d5cf4b58962164105c1e71489a37ef3ae0db3fdce576f662000ceb81620014e8565b506002805460ff19166001179055565b6000805160206200513183398151915262000d1681620014e8565b6101f461ffff8316111562000d3e57604051634efbf5f560e01b815260040160405180910390fd5b6010805461ffff191661ffff841617905560005b6007548110156200078c5760006007828154811062000d755762000d7562003091565b60009182526020808320909101546001600160a01b031680835260038083526040808520815160a0810183528154808252600183015496820187905260028301549382018490529382015460608201526004909101546080820152929550919362000de593869390929162001bf0565b5050808062000df490620030bd565b91505062000d52565b6000805160206200513183398151915262000e1881620014e8565b6101f461ffff8316111562000e4057604051634efbf5f560e01b815260040160405180910390fd5b50600e805461ffff191661ffff92909216919091179055565b600082815260016020526040812062000e73908362001cae565b9392505050565b6000918252602082815260408084206001600160a01b0393909316845291905290205460ff1690565b6000805160206200513183398151915262000ebe81620014e8565b6200078c83602084013584356040860135600062001bf0565b6000805160206200513183398151915262000ef281620014e8565b506001600160a01b03918216600090815260056020526040902080546001600160a01b03191691909216179055565b60008181526001602052604081206200075d9062001cbc565b60025460ff16151560000362000f635760405163dcdde9dd60e01b815260040160405180910390fd5b600e546201000090046001600160a01b03161562000f9457604051631fa7b44b60e11b815260040160405180910390fd5b600062000fa181620014e8565b62000fac8262001cc7565b50600e80546001600160a01b03909216620100000262010000600160b01b0319909216919091179055565b600062000fe481620014e8565b6200081360088362001fe0565b6000828152602081905260409020600101546200100e81620014e8565b6200078c83836200151d565b60025460009060ff161515600103620010465760405163ab35696f60e01b815260040160405180910390fd5b6001600160a01b038416600090815260036020526040902080548591859182101580620010765750818160010154115b156200109557604051632160733960e01b815260040160405180910390fd5b6002810154156200111d576004810154620010b490620151806200316a565b421115620010ca57426004820155600060038201555b8060020154828260030154620010e191906200316a565b11156200110157604051635ee26fb960e11b815260040160405180910390fd5b818160030160008282546200111791906200316a565b90915550505b6001600160a01b0385166200114557604051638aa3a72f60e01b815260040160405180910390fd5b600d80549450849060006200115a83620030bd565b919050555060006200116d88886200200d565b90506001600160a01b038816857f3a58bc9c7c305b0dba42522c856c30706aadce643b5dc3c0a1a0c41fec127d99620011a7848b62003180565b604080519182526001600160a01b038b166020830152810185905260600160405180910390a3505050509392505050565b805160ff161580620011f057508051608060ff909116115b80620012015750602081015160ff16155b80620012175750608060ff16816020015160ff16115b15620012365760405163c52a9bd360e01b815260040160405180910390fd5b8051825460209092015160ff9081166101000261ffff19909316911617179055565b62001264828262000e7a565b62000813576000828152602081815260408083206001600160a01b03851684529091529020805460ff191660011790556200129c3390565b6001600160a01b0316816001600160a01b0316837f2f8788117e7eff1d82e926ec794901d17c78024a50270940304540a733656f0d60405160405180910390a45050565b600062000e73836001600160a01b0384166200214b565b606060006200130883600262003196565b620013159060026200316a565b67ffffffffffffffff81111562001330576200133062002c07565b6040519080825280601f01601f1916602001820160405280156200135b576020820181803683370190505b509050600360fc1b8160008151811062001379576200137962003091565b60200101906001600160f81b031916908160001a905350600f60fb1b81600181518110620013ab57620013ab62003091565b60200101906001600160f81b031916908160001a9053506000620013d184600262003196565b620013de9060016200316a565b90505b600181111562001460576f181899199a1a9b1b9c1cb0b131b232b360811b85600f166010811062001416576200141662003091565b1a60f81b8282815181106200142f576200142f62003091565b60200101906001600160f81b031916908160001a90535060049490941c936200145881620031b0565b9050620013e1565b50831562000e735760405162461bcd60e51b815260206004820181905260248201527f537472696e67733a20686578206c656e67746820696e73756666696369656e746044820152606401620007fe565b60006001600160e01b03198216637965db0b60e01b14806200075d57506301ffc9a760e01b6001600160e01b03198316146200075d565b620014f481336200219d565b50565b62001503828262001258565b60008281526001602052604090206200078c9082620012e0565b6200152982826200220c565b60008281526001602052604090206200078c908262002274565b6001600160a01b03811660009081526002808401602052604090912090815460ff16600381111562001579576200157962002bb4565b1015620015a557604051633a5a4c2160e01b81526001600160a01b0383166004820152602401620007fe565b805460ff191660011781556040516001600160a01b038316907f1803740ef72fc16e647c10fe2d31cf61a1578081960c2e3fb7f5aa957e82f55090600090a2505050565b604080516001600160a01b038416602482015260448082018490528251808303909101815260649091019091526020810180516001600160e01b031663a9059cbb60e01b1790526200078c9084906200228b565b6001600160a01b03828116600090815260046020526040902054161562001677576040516303ff3dd760e11b815260040160405180910390fd5b6200169083602083013583356040850135600162001bf0565b5060078054600181019091557fa66cc928b5edb82af9bd49922954155ab7b0942694bea4ce44661d9a8736c6880180546001600160a01b039384166001600160a01b0319918216811790925591909216600090815260046020526040902080549091169091179055565b6000818152600383016020526040812060010154835460609291908290620017359060ff6301000000820481169162010000900416620031ca565b60ff1690508067ffffffffffffffff81111562001756576200175662002c07565b60405190808252806020026020018201604052801562001780578160200160208202803683370190505b5093506000925060005b8161ffff168161ffff161015620017fd57600161ffff82161b831615620017e85780858561ffff1681518110620017c557620017c562003091565b61ffff9092166020928302919091019091015283620017e481620031e6565b9450505b80620017f481620031e6565b9150506200178a565b5050509250929050565b60025460ff161515600103620018305760405163ab35696f60e01b815260040160405180910390fd5b600954841062000a485760006200184a8585858562002364565b905060006200185d6008338489620023b9565b9050600181600281111562001876576200187662002bb4565b03620018c457604080518581526001600160a01b03858116602083015287169188917fcd73aecbef9bf19bece4b777ca57590ee572e85a62ff5602b7ab7eb73ddcb443910160405180910390a35b620018d26008838862002638565b1562001a33576001600160a01b0380861660009081526004602052604081205490911690806200190483888862002690565b909250905060008062001919600888620016fa565b909250905060006200193061ffff8316856200320a565b6001600160a01b03871660009081526006602052604081209192505b8361ffff168161ffff161015620019c05782826000878461ffff16815181106200197a576200197a62003091565b602002602001015161ffff1681526020019081526020016000206000828254620019a591906200316a565b90915550819050620019b781620031e6565b9150506200194c565b5050505050826001600160a01b0316886001600160a01b03168a7f775fb71ba106691d4fd81c953ace830d359f3b850e98fbc2a1ebf420af86428a858b62001a09919062003180565b604080519182526001600160a01b038c166020830152810187905260600160405180910390a45050505b505050505050565b60008162001a555783546301000000900460ff1662001a61565b835462010000900460ff165b9050607f1960ff82160162001a895760405163ab2bf70360e01b815260040160405180910390fd5b6001600160a01b0383166000908152600285016020526040812090815460ff16600381111562001abd5762001abd62002bb4565b1462001ae85760405163899ec36960e01b81526001600160a01b0385166004820152602401620007fe565b845462001b089060ff6301000000820481169162010000900416620031ca565b815460ff919091166101000261ff0019909116178155821562001b6d57845462010000900460ff1685600262001b3e836200322d565b82546101009290920a60ff81810219909316919092169190910217905550805460ff1916600217815562001bb1565b84546301000000900460ff1685600362001b87836200322d565b82546101009290920a60ff81810219909316919092169190910217905550805460ff191660031781555b604051831515906001600160a01b038616907f986fcaacc4ec3bd003cca4a358313c174dbc682df73d495e8af308dc55b027a190600090a35050505050565b6001600160a01b03851660009081526003602052604090206001015484158062001c2757508162001c2357801562001c27565b8015155b1562001c46576040516303ff3dd760e11b815260040160405180910390fd5b50506040805160a081018252928352602080840194855283820192835260006060850181815242608087019081526001600160a01b03909816825260039283905292902093518455935160018401559051600283015551918101919091559051600490910155565b600062000e738383620027ea565b60006200075d825490565b60005b600754811015620008135760006007828154811062001ced5762001ced62003091565b6000918252602082200154604051632f2ff15d60e01b815260048101929092526001600160a01b0385811660248401521691508190632f2ff15d90604401600060405180830381600087803b15801562001d4657600080fd5b505af115801562001d5b573d6000803e3d6000fd5b5050604051632f2ff15d60e01b81527f9f2df0fed2c77648de5860a4cc508cd0818c85b8b8a1ab4ceeef8d981c8956a660048201526001600160a01b03868116602483015284169250632f2ff15d9150604401600060405180830381600087803b15801562001dc957600080fd5b505af115801562001dde573d6000803e3d6000fd5b5050604051632f2ff15d60e01b81527f65d7a28e3265b37a6474929f336521b332c1681b933f6cb9f3376673440d862a60048201526001600160a01b03868116602483015284169250632f2ff15d9150604401600060405180830381600087803b15801562001e4c57600080fd5b505af115801562001e61573d6000803e3d6000fd5b5050604051631b2b455f60e11b8152600060048201523060248201526001600160a01b03841692506336568abe9150604401600060405180830381600087803b15801562001eae57600080fd5b505af115801562001ec3573d6000803e3d6000fd5b5050604051631b2b455f60e11b81527f9f2df0fed2c77648de5860a4cc508cd0818c85b8b8a1ab4ceeef8d981c8956a660048201523060248201526001600160a01b03841692506336568abe9150604401600060405180830381600087803b15801562001f2f57600080fd5b505af115801562001f44573d6000803e3d6000fd5b5050604051631b2b455f60e11b81527f65d7a28e3265b37a6474929f336521b332c1681b933f6cb9f3376673440d862a60048201523060248201526001600160a01b03841692506336568abe9150604401600060405180830381600087803b15801562001fb057600080fd5b505af115801562001fc5573d6000803e3d6000fd5b5050505050808062001fd790620030bd565b91505062001cca565b8082600101541062002005576040516307faab4f60e11b815260040160405180910390fd5b600190910155565b60006200201a8262002817565b6001600160a01b0384166000908152600f6020526040812080549293508392909190620020499084906200316a565b90915550506001600160a01b0383166379cc6790336200206a848662003180565b6040516001600160e01b031960e085901b1681526001600160a01b0390921660048301526024820152604401600060405180830381600087803b158015620020b157600080fd5b505af1158015620020c6573d6000803e3d6000fd5b50506040516323b872dd60e01b8152336004820152306024820152604481018490526001600160a01b03861692506323b872dd91506064016020604051808303816000875af11580156200211e573d6000803e3d6000fd5b505050506040513d601f19601f820116820180604052508101906200214491906200324f565b5092915050565b600081815260018301602052604081205462002194575081546001818101845560008481526020808220909301849055845484825282860190935260409020919091556200075d565b5060006200075d565b620021a9828262000e7a565b6200081357620021c4816001600160a01b03166014620012f7565b620021d1836020620012f7565b604051602001620021e49291906200326f565b60408051601f198184030181529082905262461bcd60e51b8252620007fe91600401620032e8565b62002218828262000e7a565b1562000813576000828152602081815260408083206001600160a01b0385168085529252808320805460ff1916905551339285917ff6391f5c32d9c69d2a47ea670b442974b53935d1edc7fd64eb21e047a839171b9190a45050565b600062000e73836001600160a01b0384166200282e565b6000620022e2826040518060400160405280602081526020017f5361666545524332303a206c6f772d6c6576656c2063616c6c206661696c6564815250856001600160a01b0316620029329092919063ffffffff16565b8051909150156200078c57808060200190518101906200230391906200324f565b6200078c5760405162461bcd60e51b815260206004820152602a60248201527f5361666545524332303a204552433230206f7065726174696f6e20646964206e6044820152691bdd081cdd58d8d9595960b21b6064820152608401620007fe565b6040805160208082018790526bffffffffffffffffffffffff19606087811b8216848601526054840187905285901b16607483015282518083036068018152608890920190925280519101205b949350505050565b600082815260038501602052604081206002815462010000900460ff166002811115620023ea57620023ea62002bb4565b03620023fb576000915050620023b1565b6001600160a01b038516600090815260028701602052604080822081518083019092528054829060ff16600381111562002439576200243962002bb4565b60038111156200244d576200244d62002bb4565b81529054610100900460ff16602090910152905060028151600381111562002479576200247962002bb4565b1015620024a557604051633a5a4c2160e01b81526001600160a01b0387166004820152602401620007fe565b600084815260048801602052604090205415620024d557604051631bf4348160e31b815260040160405180910390fd5b602081015160018381015460ff9092161b90811615620024fc5760009350505050620023b1565b600183018054821790556002825160038111156200251e576200251e62002bb4565b03620025575782548390600090620025399060ff166200322d565b91906101000a81548160ff021916908360ff1602179055506200258a565b825483906001906200257190610100900460ff166200322d565b91906101000a81548160ff021916908360ff1602179055505b8754835460ff918216911610801590620025b657508754835460ff610100928390048116929091041610155b15620025e9575050805462ff000019166202000017905550600081815260048501602052604090208290556002620023b1565b6000835462010000900460ff1660028111156200260a576200260a62002bb4565b036200262a575050805462ff0000191662010000179055506001620023b1565b506000979650505050505050565b60008360010154821480156200265d5750600082815260048501602052604090205483145b1562002686576001840180549060006200267783620030bd565b91905055506001905062000e73565b5060009392505050565b60105460009081908190620026ab90869061ffff1662002943565b6001600160a01b0387166000908152600f6020526040812080549293508392909190620026da9084906200316a565b9091555050600e54620026f390869061ffff1662002943565b91506200270182826200316a565b92506001600160a01b0386166340c10f19856200271f868962003180565b6040516001600160e01b031960e085901b1681526001600160a01b0390921660048301526024820152604401600060405180830381600087803b1580156200276657600080fd5b505af11580156200277b573d6000803e3d6000fd5b50506040516340c10f1960e01b8152306004820152602481018690526001600160a01b03891692506340c10f199150604401600060405180830381600087803b158015620027c857600080fd5b505af1158015620027dd573d6000803e3d6000fd5b5050505050935093915050565b600082600001828154811062002804576200280462003091565b9060005260206000200154905092915050565b6010546000906200075d90839061ffff1662002943565b60008181526001830160205260408120548015620029275760006200285560018362003180565b85549091506000906200286b9060019062003180565b9050818114620028d75760008660000182815481106200288f576200288f62003091565b9060005260206000200154905080876000018481548110620028b557620028b562003091565b6000918252602080832090910192909255918252600188019052604090208390555b8554869080620028eb57620028eb620032fd565b6001900381819060005260206000200160009055905585600101600086815260200190815260200160002060009055600193505050506200075d565b60009150506200075d565b6060620023b1848460008562002964565b60006127106200295861ffff84168562003196565b62000e7391906200320a565b606082471015620029c75760405162461bcd60e51b815260206004820152602660248201527f416464726573733a20696e73756666696369656e742062616c616e636520666f6044820152651c8818d85b1b60d21b6064820152608401620007fe565b6001600160a01b0385163b62002a205760405162461bcd60e51b815260206004820152601d60248201527f416464726573733a2063616c6c20746f206e6f6e2d636f6e74726163740000006044820152606401620007fe565b600080866001600160a01b0316858760405162002a3e919062003313565b60006040518083038185875af1925050503d806000811462002a7d576040519150601f19603f3d011682016040523d82523d6000602084013e62002a82565b606091505b509150915062002a9482828662002a9f565b979650505050505050565b6060831562002ab057508162000e73565b82511562002ac15782518084602001fd5b8160405162461bcd60e51b8152600401620007fe9190620032e8565b611dff806200333283390190565b60006020828403121562002afe57600080fd5b81356001600160e01b03198116811462000e7357600080fd5b60006020828403121562002b2a57600080fd5b5035919050565b80356001600160a01b038116811462002b4957600080fd5b919050565b6000806040838503121562002b6257600080fd5b8235915062002b746020840162002b31565b90509250929050565b60006020828403121562002b9057600080fd5b62000e738262002b31565b60006040828403121562002bae57600080fd5b50919050565b634e487b7160e01b600052602160045260246000fd5b815160408201906004811062002bf057634e487b7160e01b600052602160045260246000fd5b8083525060ff602084015116602083015292915050565b634e487b7160e01b600052604160045260246000fd5b600082601f83011262002c2f57600080fd5b813567ffffffffffffffff8082111562002c4d5762002c4d62002c07565b604051601f8301601f19908116603f0116810190828211818310171562002c785762002c7862002c07565b8160405283815286602085880101111562002c9257600080fd5b836020870160208301376000602085830101528094505050505092915050565b803560ff8116811462002b4957600080fd5b60006060828403121562002bae57600080fd5b600080600080600080610100878903121562002cf257600080fd5b863567ffffffffffffffff8082111562002d0b57600080fd5b62002d198a838b0162002c1d565b9750602089013591508082111562002d3057600080fd5b5062002d3f89828a0162002c1d565b95505062002d506040880162002b31565b935062002d606060880162002b31565b925062002d706080880162002cb2565b915062002d818860a0890162002cc4565b90509295509295509295565b604080825283519082018190526000906020906060840190828701845b8281101562002dcc57815161ffff168452928401929084019060010162002daa565b50505061ffff9490941692019190915250919050565b60008060008060008060c0878903121562002dfc57600080fd5b8635955062002e0e6020880162002b31565b94506040870135935062002e256060880162002b31565b92506080870135915060a087013590509295509295509295565b6000806000806060858703121562002e5657600080fd5b843567ffffffffffffffff8082111562002e6f57600080fd5b818701915087601f83011262002e8457600080fd5b81358181111562002e9457600080fd5b8860208260071b850101111562002eaa57600080fd5b6020928301999098509187013596604001359550909350505050565b8015158114620014f457600080fd5b60008060006060848603121562002eeb57600080fd5b62002ef68462002b31565b9250602084013562002f088162002ec6565b915062002f186040850162002b31565b90509250925092565b6000806040838503121562002f3557600080fd5b62002f408362002b31565b915062002b746020840162002b31565b60006020828403121562002f6357600080fd5b813561ffff8116811462000e7357600080fd5b6000806040838503121562002f8a57600080fd5b50508035926020909101359150565b6000806080838503121562002fad57600080fd5b62002fb88362002b31565b915062002b74846020850162002cc4565b6000806040838503121562002fdd57600080fd5b62002fe88362002b31565b946020939093013593505050565b6000806000606084860312156200300c57600080fd5b620030178462002b31565b92506020840135915062002f186040850162002b31565b6000604082840312156200304157600080fd5b6040516040810181811067ffffffffffffffff8211171562003067576200306762002c07565b604052620030758362002cb2565b8152620030856020840162002cb2565b60208201529392505050565b634e487b7160e01b600052603260045260246000fd5b634e487b7160e01b600052601160045260246000fd5b600060018201620030d257620030d2620030a7565b5060010190565b60005b83811015620030f6578181015183820152602001620030dc565b50506000910152565b6000815180845262003119816020860160208601620030d9565b601f01601f19169290920160200192915050565b606081526000620031426060830186620030ff565b8281036020840152620031568186620030ff565b91505060ff83166040830152949350505050565b808201808211156200075d576200075d620030a7565b818103818111156200075d576200075d620030a7565b80820281158282048414176200075d576200075d620030a7565b600081620031c257620031c2620030a7565b506000190190565b60ff81811683821601908111156200075d576200075d620030a7565b600061ffff808316818103620032005762003200620030a7565b6001019392505050565b6000826200322857634e487b7160e01b600052601260045260246000fd5b500490565b600060ff821660ff8103620032465762003246620030a7565b60010192915050565b6000602082840312156200326257600080fd5b815162000e738162002ec6565b7f416363657373436f6e74726f6c3a206163636f756e7420000000000000000000815260008351620032a9816017850160208801620030d9565b7001034b99036b4b9b9b4b733903937b6329607d1b6017918401918201528351620032dc816028840160208801620030d9565b01602801949350505050565b60208152600062000e736020830184620030ff565b634e487b7160e01b600052603160045260246000fd5b6000825162003327818460208701620030d9565b919091019291505056fe60a06040523480156200001157600080fd5b5060405162001dff38038062001dff833981016040819052620000349162000302565b82828181600562000046838262000415565b50600662000055828262000415565b50506007805460ff19169055506200006f600033620000d8565b6200009b7f9f2df0fed2c77648de5860a4cc508cd0818c85b8b8a1ab4ceeef8d981c8956a633620000d8565b620000c77f65d7a28e3265b37a6474929f336521b332c1681b933f6cb9f3376673440d862a33620000d8565b505060ff1660805250620004e19050565b620000e48282620000e8565b5050565b620000ff82826200012b60201b6200095f1760201c565b600082815260016020908152604090912062000126918390620009e3620001cb821b17901c565b505050565b6000828152602081815260408083206001600160a01b038516845290915290205460ff16620000e4576000828152602081815260408083206001600160a01b03851684529091529020805460ff19166001179055620001873390565b6001600160a01b0316816001600160a01b0316837f2f8788117e7eff1d82e926ec794901d17c78024a50270940304540a733656f0d60405160405180910390a45050565b6000620001e2836001600160a01b038416620001eb565b90505b92915050565b60008181526001830160205260408120546200023457508154600181810184556000848152602080822090930184905584548482528286019093526040902091909155620001e5565b506000620001e5565b634e487b7160e01b600052604160045260246000fd5b600082601f8301126200026557600080fd5b81516001600160401b03808211156200028257620002826200023d565b604051601f8301601f19908116603f01168101908282118183101715620002ad57620002ad6200023d565b81604052838152602092508683858801011115620002ca57600080fd5b600091505b83821015620002ee5785820183015181830184015290820190620002cf565b600093810190920192909252949350505050565b6000806000606084860312156200031857600080fd5b83516001600160401b03808211156200033057600080fd5b6200033e8783880162000253565b945060208601519150808211156200035557600080fd5b50620003648682870162000253565b925050604084015160ff811681146200037c57600080fd5b809150509250925092565b600181811c908216806200039c57607f821691505b602082108103620003bd57634e487b7160e01b600052602260045260246000fd5b50919050565b601f8211156200012657600081815260208120601f850160051c81016020861015620003ec5750805b601f850160051c820191505b818110156200040d57828155600101620003f8565b505050505050565b81516001600160401b038111156200043157620004316200023d565b620004498162000442845462000387565b84620003c3565b602080601f831160018114620004815760008415620004685750858301515b600019600386901b1c1916600185901b1785556200040d565b600085815260208120601f198616915b82811015620004b25788860151825594840194600190910190840162000491565b5085821015620004d15787850151600019600388901b60f8161c191681555b5050505050600190811b01905550565b608051611902620004fd600039600061027d01526119026000f3fe608060405234801561001057600080fd5b50600436106101c45760003560e01c806370a08231116100f9578063a457c2d711610097578063d539139311610071578063d5391393146103d1578063d547741f146103f8578063dd62ed3e1461040b578063e63ab1e91461041e57600080fd5b8063a457c2d714610398578063a9059cbb146103ab578063ca15c873146103be57600080fd5b80639010d07c116100d35780639010d07c1461034a57806391d148541461037557806395d89b4114610388578063a217fddf1461039057600080fd5b806370a082311461030657806379cc67901461032f5780638456cb591461034257600080fd5b8063313ce567116101665780633f4ba83a116101405780633f4ba83a146102cd57806340c10f19146102d557806342966c68146102e85780635c975abb146102fb57600080fd5b8063313ce5671461027657806336568abe146102a757806339509351146102ba57600080fd5b806318160ddd116101a257806318160ddd1461021957806323b872dd1461022b578063248a9ca31461023e5780632f2ff15d1461026157600080fd5b806301ffc9a7146101c957806306fdde03146101f1578063095ea7b314610206575b600080fd5b6101dc6101d73660046115c2565b610445565b60405190151581526020015b60405180910390f35b6101f9610470565b6040516101e89190611610565b6101dc61021436600461165f565b610502565b6004545b6040519081526020016101e8565b6101dc610239366004611689565b61051a565b61021d61024c3660046116c5565b60009081526020819052604090206001015490565b61027461026f3660046116de565b61053e565b005b60405160ff7f00000000000000000000000000000000000000000000000000000000000000001681526020016101e8565b6102746102b53660046116de565b610568565b6101dc6102c836600461165f565b6105eb565b61027461060d565b6102746102e336600461165f565b6106b3565b6102746102f63660046116c5565b610752565b60075460ff166101dc565b61021d61031436600461170a565b6001600160a01b031660009081526002602052604090205490565b61027461033d36600461165f565b61075f565b610274610774565b61035d610358366004611725565b610818565b6040516001600160a01b0390911681526020016101e8565b6101dc6103833660046116de565b610837565b6101f9610860565b61021d600081565b6101dc6103a636600461165f565b61086f565b6101dc6103b936600461165f565b6108ea565b61021d6103cc3660046116c5565b6108f8565b61021d7f9f2df0fed2c77648de5860a4cc508cd0818c85b8b8a1ab4ceeef8d981c8956a681565b6102746104063660046116de565b61090f565b61021d610419366004611747565b610934565b61021d7f65d7a28e3265b37a6474929f336521b332c1681b933f6cb9f3376673440d862a81565b60006001600160e01b03198216635a05180f60e01b148061046a575061046a826109f8565b92915050565b60606005805461047f90611771565b80601f01602080910402602001604051908101604052809291908181526020018280546104ab90611771565b80156104f85780601f106104cd576101008083540402835291602001916104f8565b820191906000526020600020905b8154815290600101906020018083116104db57829003601f168201915b5050505050905090565b600033610510818585610a2d565b5060019392505050565b600033610528858285610b51565b610533858585610bcb565b506001949350505050565b60008281526020819052604090206001015461055981610da4565b6105638383610dae565b505050565b6001600160a01b03811633146105dd5760405162461bcd60e51b815260206004820152602f60248201527f416363657373436f6e74726f6c3a2063616e206f6e6c792072656e6f756e636560448201526e103937b632b9903337b91039b2b63360891b60648201526084015b60405180910390fd5b6105e78282610dd0565b5050565b6000336105108185856105fe8383610934565b61060891906117c1565b610a2d565b6106377f65d7a28e3265b37a6474929f336521b332c1681b933f6cb9f3376673440d862a33610837565b6106a95760405162461bcd60e51b815260206004820152603960248201527f45524332305072657365744d696e7465725061757365723a206d75737420686160448201527f76652070617573657220726f6c6520746f20756e70617573650000000000000060648201526084016105d4565b6106b1610df2565b565b6106dd7f9f2df0fed2c77648de5860a4cc508cd0818c85b8b8a1ab4ceeef8d981c8956a633610837565b6107485760405162461bcd60e51b815260206004820152603660248201527f45524332305072657365744d696e7465725061757365723a206d7573742068616044820152751d99481b5a5b9d195c881c9bdb19481d1bc81b5a5b9d60521b60648201526084016105d4565b6105e78282610e44565b61075c3382610f2f565b50565b61076a823383610b51565b6105e78282610f2f565b61079e7f65d7a28e3265b37a6474929f336521b332c1681b933f6cb9f3376673440d862a33610837565b6108105760405162461bcd60e51b815260206004820152603760248201527f45524332305072657365744d696e7465725061757365723a206d75737420686160448201527f76652070617573657220726f6c6520746f20706175736500000000000000000060648201526084016105d4565b6106b1611089565b600082815260016020526040812061083090836110c6565b9392505050565b6000918252602082815260408084206001600160a01b0393909316845291905290205460ff1690565b60606006805461047f90611771565b6000338161087d8286610934565b9050838110156108dd5760405162461bcd60e51b815260206004820152602560248201527f45524332303a2064656372656173656420616c6c6f77616e63652062656c6f77604482015264207a65726f60d81b60648201526084016105d4565b6105338286868403610a2d565b600033610510818585610bcb565b600081815260016020526040812061046a906110d2565b60008281526020819052604090206001015461092a81610da4565b6105638383610dd0565b6001600160a01b03918216600090815260036020908152604080832093909416825291909152205490565b6109698282610837565b6105e7576000828152602081815260408083206001600160a01b03851684529091529020805460ff1916600117905561099f3390565b6001600160a01b0316816001600160a01b0316837f2f8788117e7eff1d82e926ec794901d17c78024a50270940304540a733656f0d60405160405180910390a45050565b6000610830836001600160a01b0384166110dc565b60006001600160e01b03198216637965db0b60e01b148061046a57506301ffc9a760e01b6001600160e01b031983161461046a565b6001600160a01b038316610a8f5760405162461bcd60e51b8152602060048201526024808201527f45524332303a20617070726f76652066726f6d20746865207a65726f206164646044820152637265737360e01b60648201526084016105d4565b6001600160a01b038216610af05760405162461bcd60e51b815260206004820152602260248201527f45524332303a20617070726f766520746f20746865207a65726f206164647265604482015261737360f01b60648201526084016105d4565b6001600160a01b0383811660008181526003602090815260408083209487168084529482529182902085905590518481527f8c5be1e5ebec7d5bd14f71427d1e84f3dd0314c0f7b2291e5b200ac8c7c3b925910160405180910390a3505050565b6000610b5d8484610934565b90506000198114610bc55781811015610bb85760405162461bcd60e51b815260206004820152601d60248201527f45524332303a20696e73756666696369656e7420616c6c6f77616e636500000060448201526064016105d4565b610bc58484848403610a2d565b50505050565b6001600160a01b038316610c2f5760405162461bcd60e51b815260206004820152602560248201527f45524332303a207472616e736665722066726f6d20746865207a65726f206164604482015264647265737360d81b60648201526084016105d4565b6001600160a01b038216610c915760405162461bcd60e51b815260206004820152602360248201527f45524332303a207472616e7366657220746f20746865207a65726f206164647260448201526265737360e81b60648201526084016105d4565b610c9c83838361112b565b6001600160a01b03831660009081526002602052604090205481811015610d145760405162461bcd60e51b815260206004820152602660248201527f45524332303a207472616e7366657220616d6f756e7420657863656564732062604482015265616c616e636560d01b60648201526084016105d4565b6001600160a01b03808516600090815260026020526040808220858503905591851681529081208054849290610d4b9084906117c1565b92505081905550826001600160a01b0316846001600160a01b03167fddf252ad1be2c89b69c2b068fc378daa952ba7f163c4a11628f55a4df523b3ef84604051610d9791815260200190565b60405180910390a3610bc5565b61075c8133611136565b610db8828261095f565b600082815260016020526040902061056390826109e3565b610dda828261119a565b600082815260016020526040902061056390826111ff565b610dfa611214565b6007805460ff191690557f5db9ee0a495bf2e6ff9c91a7834c1ba4fdd244a5e8aa4e537bd38aeae4b073aa335b6040516001600160a01b03909116815260200160405180910390a1565b6001600160a01b038216610e9a5760405162461bcd60e51b815260206004820152601f60248201527f45524332303a206d696e7420746f20746865207a65726f20616464726573730060448201526064016105d4565b610ea66000838361112b565b8060046000828254610eb891906117c1565b90915550506001600160a01b03821660009081526002602052604081208054839290610ee59084906117c1565b90915550506040518181526001600160a01b038316906000907fddf252ad1be2c89b69c2b068fc378daa952ba7f163c4a11628f55a4df523b3ef9060200160405180910390a35050565b6001600160a01b038216610f8f5760405162461bcd60e51b815260206004820152602160248201527f45524332303a206275726e2066726f6d20746865207a65726f206164647265736044820152607360f81b60648201526084016105d4565b610f9b8260008361112b565b6001600160a01b0382166000908152600260205260409020548181101561100f5760405162461bcd60e51b815260206004820152602260248201527f45524332303a206275726e20616d6f756e7420657863656564732062616c616e604482015261636560f01b60648201526084016105d4565b6001600160a01b038316600090815260026020526040812083830390556004805484929061103e9084906117d4565b90915550506040518281526000906001600160a01b038516907fddf252ad1be2c89b69c2b068fc378daa952ba7f163c4a11628f55a4df523b3ef9060200160405180910390a3505050565b61109161125d565b6007805460ff191660011790557f62e78cea01bee320cd4e420270b5ea74000d11b0c9f74754ebdbfc544b05a258610e273390565b600061083083836112a3565b600061046a825490565b60008181526001830160205260408120546111235750815460018181018455600084815260208082209093018490558454848252828601909352604090209190915561046a565b50600061046a565b6105638383836112cd565b6111408282610837565b6105e757611158816001600160a01b03166014611333565b611163836020611333565b6040516020016111749291906117e7565b60408051601f198184030181529082905262461bcd60e51b82526105d491600401611610565b6111a48282610837565b156105e7576000828152602081815260408083206001600160a01b0385168085529252808320805460ff1916905551339285917ff6391f5c32d9c69d2a47ea670b442974b53935d1edc7fd64eb21e047a839171b9190a45050565b6000610830836001600160a01b0384166114cf565b60075460ff166106b15760405162461bcd60e51b815260206004820152601460248201527314185d5cd8589b194e881b9bdd081c185d5cd95960621b60448201526064016105d4565b60075460ff16156106b15760405162461bcd60e51b815260206004820152601060248201526f14185d5cd8589b194e881c185d5cd95960821b60448201526064016105d4565b60008260000182815481106112ba576112ba61185c565b9060005260206000200154905092915050565b60075460ff16156105635760405162461bcd60e51b815260206004820152602a60248201527f45524332305061757361626c653a20746f6b656e207472616e736665722077686044820152691a5b19481c185d5cd95960b21b60648201526084016105d4565b60606000611342836002611872565b61134d9060026117c1565b67ffffffffffffffff81111561136557611365611889565b6040519080825280601f01601f19166020018201604052801561138f576020820181803683370190505b509050600360fc1b816000815181106113aa576113aa61185c565b60200101906001600160f81b031916908160001a905350600f60fb1b816001815181106113d9576113d961185c565b60200101906001600160f81b031916908160001a90535060006113fd846002611872565b6114089060016117c1565b90505b6001811115611480576f181899199a1a9b1b9c1cb0b131b232b360811b85600f166010811061143c5761143c61185c565b1a60f81b8282815181106114525761145261185c565b60200101906001600160f81b031916908160001a90535060049490941c936114798161189f565b905061140b565b5083156108305760405162461bcd60e51b815260206004820181905260248201527f537472696e67733a20686578206c656e67746820696e73756666696369656e7460448201526064016105d4565b600081815260018301602052604081205480156115b85760006114f36001836117d4565b8554909150600090611507906001906117d4565b905081811461156c5760008660000182815481106115275761152761185c565b906000526020600020015490508087600001848154811061154a5761154a61185c565b6000918252602080832090910192909255918252600188019052604090208390555b855486908061157d5761157d6118b6565b60019003818190600052602060002001600090559055856001016000868152602001908152602001600020600090556001935050505061046a565b600091505061046a565b6000602082840312156115d457600080fd5b81356001600160e01b03198116811461083057600080fd5b60005b838110156116075781810151838201526020016115ef565b50506000910152565b602081526000825180602084015261162f8160408501602087016115ec565b601f01601f19169190910160400192915050565b80356001600160a01b038116811461165a57600080fd5b919050565b6000806040838503121561167257600080fd5b61167b83611643565b946020939093013593505050565b60008060006060848603121561169e57600080fd5b6116a784611643565b92506116b560208501611643565b9150604084013590509250925092565b6000602082840312156116d757600080fd5b5035919050565b600080604083850312156116f157600080fd5b8235915061170160208401611643565b90509250929050565b60006020828403121561171c57600080fd5b61083082611643565b6000806040838503121561173857600080fd5b50508035926020909101359150565b6000806040838503121561175a57600080fd5b61176383611643565b915061170160208401611643565b600181811c9082168061178557607f821691505b6020821081036117a557634e487b7160e01b600052602260045260246000fd5b50919050565b634e487b7160e01b600052601160045260246000fd5b8082018082111561046a5761046a6117ab565b8181038181111561046a5761046a6117ab565b7f416363657373436f6e74726f6c3a206163636f756e742000000000000000000081526000835161181f8160178501602088016115ec565b7001034b99036b4b9b9b4b733903937b6329607d1b60179184019182015283516118508160288401602088016115ec565b01602801949350505050565b634e487b7160e01b600052603260045260246000fd5b808202811582820484141761046a5761046a6117ab565b634e487b7160e01b600052604160045260246000fd5b6000816118ae576118ae6117ab565b506000190190565b634e487b7160e01b600052603160045260246000fdfea2646970667358221220f6070dfc0e95ca26b4f4c30364955d43a8953da748e317fa9d7a3a64368a969064736f6c63430008110033930fce5230a9f921042304dfd119e1ad0bbc7d9c38c01b0505d47cf8b65d228ca264697066735822122019b433a75c9436ca56923f049f6378e2984b78d2b7eb9de2b44c36eba1e0686664736f6c63430008110033930fce5230a9f921042304dfd119e1ad0bbc7d9c38c01b0505d47cf8b65d228c",
    "linkReferences": {}
  },
  "methodIdentifiers": {
    "DEFAULT_ADMIN_ROLE()": "a217fddf",
    "PAUSE_ROLE()": "389ed267",
    "WEAK_ADMIN_ROLE()": "85814636",
    "accumulatedProtocolFees(address)": "8e26a488",
    "addValidator(address,bool,address)": "73445f00",
    "approveExecute(uint256,address,uint256,address,bytes32,uint256)": "66d372e8",
    "attesters(bytes32)": "651107bd",
    "batchApproveExecute((uint256,address,uint256,address)[],bytes32,uint256)": "6d1b96b4",
    "claimProtocolFees(address,address)": "77c654a3",
    "claimValidatorFees(address)": "511e1f0c",
    "configureMultisig((uint8,uint8))": "47adf630",
    "configureProtocolFees(uint16)": "883910d7",
    "configureToken(address,(uint256,uint256,uint256))": "9267b153",
    "configureValidatorFeeRecipient(address,address)": "c3e4a866",
    "configureValidatorFees(uint16)": "88f14da3",
    "createAddToken(string,string,address,address,uint8,(uint256,uint256,uint256))": "5bfb29aa",
    "deposit(address,uint256,address)": "f45346dc",
    "depositIndex()": "7b898939",
    "feeBalance(address,uint256)": "eec9c9de",
    "forceSetNextExecutionIndex(uint256)": "d1734907",
    "getRoleAdmin(bytes32)": "248a9ca3",
    "getRoleMember(bytes32,uint256)": "9010d07c",
    "getRoleMemberCount(bytes32)": "ca15c873",
    "grantRole(bytes32,address)": "2f2ff15d",
    "hasRole(bytes32,address)": "91d14854",
    "migrate(address)": "ce5494bb",
    "migratedContract()": "7486fa4e",
    "mirrorTokens(address)": "feaeb43e",
    "nextExecutionIndex()": "dff73307",
    "pause()": "8456cb59",
    "paused()": "5c975abb",
    "protocolFeeBPS()": "96daa322",
    "removeValidator(address)": "40a141ff",
    "renounceRole(bytes32,address)": "36568abe",
    "revokeRole(bytes32,address)": "d547741f",
    "supportsInterface(bytes4)": "01ffc9a7",
    "tokenInfos(address)": "ba46ae72",
    "tokens(uint256)": "4f64b2be",
    "unpause()": "3f4ba83a",
    "validatorFeeBPS()": "842e8b81",
    "validatorFeeRecipients(address)": "36cdca74",
    "validatorInfo(address)": "4f1811dd"
  },
  "id": 31
}